:03000000020B935D
:0C0B9300787FE4F6D8FD7581240209206B
:10098C00202020202074657374202020202020201B
:10099C00002020202020202020202020202020206B
:1009AC00200073656E736F722073656E73696E676A
:1009BC00202000204D6F746F7220536D6F7468206F
:1009CC002020200020202052756E6E696E6720203A
:0509DC00202020200096
:080A34008F0B8E0A8D098C085E
:100A3C00758902E4F58CAF0BAE0AAD09AC08EC4D30
:100A4C004E4F602FE4FFFED28C308DFDC28D0FBF58
:100A5C0000010EEF64044E70EE74FF250BF50BE5F0
:100A6C000A34FFF50AE50934FFF509E50834FFF50A
:030A7C000880C32C
:010A7F002254
:100B53008F218E208D1F8C1E758902E521F404F5EB
:090B63008CD28C308DFDC28D2274
:100B1C007F38120B6C120B847F06120B6C120B8439
:0D0B2C007F0C120B6C120B847F01020B6C0E
:100B6C008F80D2A5C2A6C2A77F7D7E00120B88C241
:080B7C00A57F7D7E00020B88BD
:030AFB002430FDA7
:100AFE008D0F120B6C850F80D2A7D2A5C2A67F7D5B
:0E0B0E007E00120B88C2A57F7D7E00020B8840
:0E0A80007A09799D7BFF750C00750D107FC003
:080A8E008F088B098A0A890B0D
:100A9600E4F50EC3E50E950DE4950C501CE508250E
:100AA6000EFFAB09AA0AA90B850E827583001208F0
:090AB6009EFD120AFE050E80DA15
:010ABF002214
:020AC0008F2283
:100AC200ED75F06484ABF07A007C007D0AAF037EA2
:100AD200001208CB8F827E00AF037C007D0A1208D1
:100AE200CB8C238D24AF82EFAF22120AFBE52204C6
:090AF200FFE5242430FD020AFE98
:0209E1008F1075
:1009E300ED75F06484751100F512ED75F06484AB58
:1009F300F07A007C007D0AAF037E001208CB8E13D1
:100A03008F147E00AF037C007D0A1208CB8C158DFA
:100A130016E512AF10120AFBE51004FFE5142430AB
:100A2300FD120AFEE5102402FFE5162430FD020A3A
:010A3300FEC4
:060800008F17AB05AA04EE
:100806007C277D10AF03AE021208CBAA04AB057C91
:10081600037DE8AF03AE021208CB8F82AE02AF03B0
:100826007C037DE81208CBAB05AA047C007D64AF8F
:1008360003AE021208CB8E188F19AE02AF037C00EE
:100846007D641208CBAB05AA047C007D0AAF03AE1B
:10085600021208CB8E1A8F1BAE02AF037C007D0AF4
:100866001208CB8C1C8D1DAF82EF2430FDAF171202
:100876000AFEE51704FFE5192430FD120AFEE51706
:100886002402FFE51B2430FD120AFEE5172403FFB0
:08089600E51D2430FD020AFEFD
:040B84007F0A7E0066
:0B0B8800EF1FAC0670011E4C70F6223F
:100B3900AB07AA06AE02AF03EF1F8E8370011E45F5
:090B49008370F5AC051DEC70EBA6
:010B52002280
:10092000C2A1C2A0C291C2A2120B1C7BFF7A09799C
:100930008C750C00750D107F80120A8E120A807F54
:10094000647E19120B8830A2423091237F107E27DB
:100950007D007C00120A347BFF7A0979AE750C00A9
:10096000750D107F80120A8E120A80C2A080D7D225
:10097000A07BFF7A0979BF750C00750D107F80127E
:0C0980000A8E7A0979D0120A8480BB220A
:10089E00BB010CE58229F582E5833AF583E022500F
:1008AE0006E92582F8E622BBFE06E92582F8E22259
:0D08BE00E58229F582E5833AF583E4932273
:1008CB00BC000BBE0029EF8DF084FFADF022E4CC11
:1008DB00F875F008EF2FFFEE33FEEC33FCEE9DECDA
:1008EB00984005FCEE9DFE0FD5F0E9E4CEFD22ED20
:1008FB00F8F5F0EE8420D21CFEADF075F008EF2F6A
:10090B00FFED33FD4007985006D5F0F222C398FD5A
:05091B000FD5F0EA22F7
:00000001FF
