:03000000020C9E51
:0C0C9E00787FE4F6D8FD758123020A4D32
:10089E002020636865636B696E672020202020200E
:1008AE000020206761732073656E736F72202020A5
:1008BE0020002020646574656374696E67202020B3
:1008CE0020200020206972202073656E736F7220C5
:1008DE0020202000202020204E4F2053656E736F65
:1008EE007220202000202020646574656374696E78
:1008FE0067202020200053455249414C2054455337
:10090E005400204741532053454E534F52205345D8
:10091E004E534544002049522053454E534F5220CA
:07092E0053454E5345440000
:100B99007F38120C397F0A7E00120C2E7F06120C48
:100BA900397F0A7E00120C2E7F0C120C397F0A7EC7
:090BB90000120C2E7F01020C3920
:100C39008F80D2A5C2A6C2A77F7D7E00120C2EC2CC
:080C4900A57F7D7E00020C2E48
:030BE5002430FDBC
:100BE8008D0F120C39850F80D2A7D2A5C2A67F7DA2
:0E0BF8007E00120C2EC2A57F7D7E00020C2E08
:0A0B22007BFF750C00750D107F803D
:080B2C008F088B098A0A890B6E
:100B3400E4F50EC3E50E950DE4950C501CE508256F
:100B44000EFFAB09AA0AA90B850E82758300120950
:090B540035FD120BE8050E80DAF4
:010B5D002275
:020B5E008F21E5
:100B6000ED75F06484ABF07A007C007D0AAF037E03
:100B7000001209628F827E00AF037C007D0A120999
:100B8000628C228D23AF82EFAF21120BE5E52104A9
:090B9000FFE5232430FD020BE80F
:020ACF008F1086
:100AD100ED75F06484751100F512ED75F06484AB69
:100AE100F07A007C007D0AAF037E001209628E134A
:100AF1008F147E00AF037C007D0A1209628C158D74
:100B010016E512AF10120BE5E51004FFE5142430D1
:100B1100FD120BE8E5102402FFE5162430FD020B5F
:010B2100E8EB
:060800008F17AB05AA04EE
:100806007C277D10AF03AE02120962AA04AB057CF9
:10081600037DE8AF03AE021209628F82AE02AF0318
:100826007C037DE8120962AB05AA047C007D64AFF7
:1008360003AE021209628E188F19AE02AF037C0056
:100846007D64120962AB05AA047C007D0AAF03AE83
:10085600021209628E1A8F1BAE02AF037C007D0A5C
:100866001209628C1C8D1DAF82EF2430FDAF17126A
:100876000BE8E51704FFE5192430FD120BE8E51730
:100886002402FFE51B2430FD120BE8E5172403FFC5
:08089600E51D2430FD020BE812
:0E0C20007F0D120CB37F0A120CB37FE87EFD2D
:0B0C2E00EF1FAC0670011E4C70F62298
:100C0600AB07AA06AE02AF03EF1F8E8370011E4527
:090C16008370F5AC051DEC70EBD8
:010C1F0022B2
:0E0C9000D2AF7598504389211209C8D28E2226
:080CB3008F993099FDC29922CE
:060BC2008B088A09890A74
:100BC800E4FEEEC39D5015AB08AA09A90A8E8275EA
:0C0BD8008300120935FF120CB30E80E6FA
:010BE40022EE
:1009C8008F0B8E0A8D098C08E47F6EFEFDFCAB0B45
:1009D800AA0AA909A808C31209B77004758D72225A
:1009E800E47F607E09FDFCAB0BAA0AA909A808C32D
:1009F8001209B77004758DF422E47FC07E12FDFCE5
:100A0800AB0BAA0AA909A808C31209B77004758D07
:100A1800FA22E47F807E25FDFCAB0BAA0AA909A86F
:100A280008C31209B77004758DFD227F007EC27D50
:100A3800017C00AB0BAA0AA909A808C31209B77060
:050A480003758DFF2283
:090CAA00BF0103D2AC22C2AC224E
:100A4D00C293C292C291C290120B997A08799E12EA
:100A5D000B227F807E257D007C00120C90120C51A4
:100A6D00120C2A120C2A30901B7A0879AF120B2225
:100A7D007BFF7A0879C0750C00750D107FC0120BC5
:100A8D002C120C6630931F7BFF7A0879D1120B2440
:100A9D007BFF7A0879C0750C00750D107FC0120BA5
:100AAD002C120C7B80C07BFF7A0879E2120B247B21
:100ABD00FF7A0879F3750C00750D107FC0120B2CA1
:020ACD0080A403
:100C51007BFF7A0979047D0B120BC2120C207FE80D
:050C61007EFD020C2ED7
:100C66007BFF7A0979107D12120BC2120C207FE8E5
:050C76007EFD020C2EC2
:100C7B007BFF7A0979237D11120BC2120C207FE8BE
:050C8B007EFD020C2EAD
:10093500BB010CE58229F582E5833AF583E0225077
:1009450006E92582F8E622BBFE06E92582F8E222C1
:0D095500E58229F582E5833AF583E49322DB
:10096200BC000BBE0029EF8DF084FFADF022E4CC79
:10097200F875F008EF2FFFEE33FEEC33FCEE9DEC42
:10098200984005FCEE9DFE0FD5F0E9E4CEFD22ED88
:10099200F8F5F0EE8420D21CFEADF075F008EF2FD2
:1009A200FFED33FD4007985006D5F0F222C398FDC3
:0509B2000FD5F0EA2260
:1009B700EB9FF5F0EA9E42F0E99D42F0E89C45F096
:0109C700220D
:00000001FF
