:100CD300202053455249414C205445535420202051
:070CE3000068656C6C6F00F6
:100C84007F38120CBB120CFF7F06120CBB120CFF38
:0D0C94007F0C120CBB120CFF7F01020CBB89
:100CBB008F80D2A5C2A6C2A77F7D7E00120D03C274
:080CCB00A57F7D7E00020D03F0
:030C63002430FD3D
:100C66008D28120CBB852880D2A7D2A5C2A67F7D6F
:0E0C76007E00120D03C2A57F7D7E00020D03DD
:080C31008F218B228A23892404
:100C3900E4F527C3E5279526E49525501CE52125EC
:100C490027FFAB22AA23A9248527827583001208CE
:090C590000FD120C66052780DA8B
:010C6200226F
:020BF6008F303E
:100BF800ED75F06484ABF07A007C007D0AAF037E6B
:100C08000012082D8F827E00AF037C007D0A120837
:100C18002D8C318D32AF82EFAF30120C63E530048A
:090C2800FFE5322430FD020C66E8
:020BA3008F21A0
:100BA500ED75F06484752200F523ED75F06484AB72
:100BB500F07A007C007D0AAF037E0012082D8E249A
:100BC5008F257E00AF037C007D0A12082D8C268DB3
:100BD50027E523AF21120C63E52104FFE525243029
:100BE500FD120C66E5212402FFE5272430FD020CE9
:010BF5006699
:060B05008F29AB05AA04D4
:100B0B007C277D10AF03AE0212082DAA04AB057C27
:100B1B00037DE8AF03AE0212082D8F82AE02AF0346
:100B2B007C037DE812082DAB05AA047C007D64AF25
:100B3B0003AE0212082D8E2A8F2BAE02AF037C0060
:100B4B007D6412082DAB05AA047C007D0AAF03AEB1
:100B5B000212082D8E2C8F2DAE02AF037C007D0A66
:100B6B0012082D8C2E8D2FAF82EF2430FDAF291262
:100B7B000C66E52904FFE52B2430FD120C66E529F4
:100B8B002402FFE52D2430FD120C66E5292403FF1A
:080B9B00E52F2430FD020C6679
:040CFF007F0A7E00EA
:0B0D0300EF1FAC0670011E4C70F622C2
:100CA100AB07AA06AE02AF03EF1F8E8370011E458C
:090CB1008370F5AC051DEC70EB3D
:010CBA002217
:100A3600E4F51FF520C290120C847BFF7A0C79D363
:100A46007525007526107F80120C317FE87EFD1219
:100A56000D037FE87EFD120D037F01120CBB759816
:100A660050758920758DFDD28E78097C007D007BBE
:100A7600FF7A0C79E4120A00EF601E3098FDC298E6
:100A8600AF2074092FF8A69974092FF8E6F590059A
:100A960020E52070D4051F80D078097C007D007B7E
:100AA600FF7A0C79E4120A00EF700775A00FC29066
:100AB600800775A0F0D29080B07B007A0079091289
:100AC6000CEA8E1D8F1EE4F51FF520D3E51E94005B
:100AD600E51D64809480402674092520F8E6F59982
:100AE6000520E5207002051FE51E151E7002151D66
:0E0AF60030B5FDC2B57D097F80120BA380CD07
:010B040022CE
:03000000020D0EE0
:0C0D0E00787FE4F6D8FD758132020A36C9
:10080000BB010CE58229F582E5833AF583E02250AD
:1008100006E92582F8E622BBFE06E92582F8E222F7
:0D082000E58229F582E5833AF583E4932211
:10082D00BC000BBE0029EF8DF084FFADF022E4CCAF
:10083D00F875F008EF2FFFEE33FEEC33FCEE9DEC78
:10084D00984005FCEE9DFE0FD5F0E9E4CEFD22EDBE
:10085D00F8F5F0EE8420D21CFEADF075F008EF2F08
:10086D00FFED33FD4007985006D5F0F222C398FDF9
:05087D000FD5F0EA2296
:10088200E3F5F009E208B5F06D606B80F3E3F5F093
:1008920009E608B5F060605E80F387F009E608B506
:1008A200F054605280F487F009E208B5F0486046DF
:1008B20080F488828C8387F009E0A3B5F038603633
:1008C20080F488828C8387F009E493A3B5F02760D3
:1008D2002580F388828C83E3F5F009E0A3B5F01656
:1008E200601480F388828C83E3F5F009E493A3B566
:1008F200F004600280F20209AD808580E7808E807C
:10090200D2803C8015806C807E809B80B5808B80FD
:10091200A1804F8070803A0209B989828A83ECFAF9
:10092200E493F5F0A3C8C582C8CCC583CCE493A3F5
:10093200C8C582C8CCC583CCB5F070606E80E18931
:10094200828A83E493F5F0A3E208B5F05E605C80EE
:10095200F289828A83E0F5F0A3E608B5F04D604B98
:1009620080F389828A83E0F5F0A3E208B5F03C6067
:100972003A80F389828A83E493F5F0A3E608B5F01E
:100982002A602880F2805389828A83ECFAE493F504
:10099200F0A3C8C582C8CCC583CCE0A3C8C582C8B1
:1009A200CCC583CCB5F004600280E27FFFB5F002D3
:1009B2000F2240027F012289828A83ECFAE0F5F05D
:1009C200A3C8C582C8CCC583CCE0A3C8C582C8CCA5
:1009D200C583CCB5F0D560D380E389828A83ECFAF3
:1009E200E0F5F0A3C8C582C8CCC583CCE493A3C804
:1009F200C582C8CCC583CCB5F0B160AF80E288F0C7
:100A0200ED2402B4040050A3F582EB2402B40400E6
:0B0A1200509923234582239008FB73BA
:100CEA00E4FFFE120A1D600C0FEF70010E09E97095
:050CFA00F20A80EF2268
:100A1D00BB010689828A83E0225002E722BBFE02D7
:090A2D00E32289828A83E493220A
:00000001FF
