:100CD00047534D20436F6E74726F6C6C65640052A5
:100CE0006F626F740061740061742B636D67663DA1
:100CF000310061742B636D67723D000000000000DD
:100D00000000000000666F727761726420626163A8
:100D10006B776172646C656674202020207269674D
:050D2000687420202092
:100D9700E4FDFCC3ED9FEC9E5015E4FBFA0BBB0092
:0F0DA700010AEB647C4A70F50DBD00010C80E47D
:010DB600221A
:060E130054F04404F590C8
:0C0E1900D2927F057E00120D97C292223B
:100DEC00A907C290E9120E13E9C4120E137F057EF7
:040DFC0000020D974D
:070D4D00740E2509F8E6FF12
:100D5400A907D290E954F04405F590120E19E9C49C
:100D640054F04405F590120E197F057E00020D978C
:100DD3007F02120DEC7F28120DEC7F08120DEC7FC1
:090DE30006120DEC7F0C020DEC70
:100DB7008F398D3AEF7006E53A2480800AE5396469
:0C0DC700017008E53A24C0FF120DEC2278
:080C14008E4A8F4B8C4C8D4D74
:100C1C00784E7C007D007BFF7A0C79FB7E007F0593
:100C2C00120A87755300755404E4F555F556E54BD7
:100C3C00454A602BAE4AAF4B7C007D0A120AC67443
:100C4C004E2554F8A605AE4AAF4B7C007D0A120A1D
:100C5C00C68E4A8F4BE554155470D3155380CFE58F
:100C6C004DB4FF1CE54CB4FF17744E2556F8E6FF47
:100C7C003395E04F70160556E55670ED055580E935
:100C8C00C37405954DF556E4954CF555C3E54A648A
:100C9C0080948050057F2D120D54855553855654E4
:100CAC00C3E5549405E553648094805016744E2526
:100CBC0054F8E62430FF120D540554E55470E10548
:030CCC005380DD75
:010CCF002202
:100D74008B578A588959AB57AA58A959120AADFFFB
:100D84006010120D5474012559F559E43558F5587D
:030D940080E422D6
:100D25008B368A378938120DB7AB36AA37A93812F0
:100D35000AAD60130538E5387002053714F9120A53
:080D4500ADFF120D5480E22203
:080B51008F3B8D3C8A3D8B3E79
:100B590078417C007D007BFF7A0D79007E007F055E
:100B6900120A87754600754704E4F548F549AD3C16
:100B7900AF3B120DB7E53E453D602BAE3DAF3E7C28
:100B8900007D0A120AC674412547F8A605AE3DAF95
:100B99003E7C007D0A120AC68E3D8F3EE547154709
:100BA90070D3154680CFE540B4FF1CE53FB4FF176D
:100BB90074412549F8E6FF3395E04F70160549E57C
:100BC9004970ED054880E9C374059540F549E495F8
:100BD9003FF548C3E53D6480948050057F2D120D93
:100BE90054854846854947C3E5479405E5466480E9
:100BF9009480501674412547F8E62430FF120D54AD
:0A0C09000547E54770E1054680DD70
:010C130022BE
:0C0E3700758920758DFD759850D28E22B3
:0A0E2500120E007F0D120E2F7F0A3F
:080E2F008F993099FDC2992250
:0A0E4F003098FDC298AF997E002292
:100E0000120AADFF600C120E2F740129F9E43AFAB0
:030E100080EE224F
:1008000078167C007D007BFF7A0D79057E007F08DD
:10081000120A87781E7C007D007BFF7A0D790D7EA1
:10082000007F08120A8778267C007D007BFF7A0D06
:1008300079157E007F08120A87782E7C007D007B68
:10084000FF7A0D791D7E007F08120A87120DD312E0
:100850000E37E4F5A07BFF7A0C79D0FDFF120D2551
:100860007BFF7A0C79DFE4FD7F01120D25120D4D1F
:10087000E4F50AF50CF50D120E4FEF640D4E70F70E
:10088000120E4FEF640A4E70F7120E4FEF642B4EAC
:1008900070DB120E4FEF64434E70D2120E4FEF64B6
:1008A0004D4E70C9120E4FEF64544E70C0120E4F71
:1008B000EF64494E70B7120E4FEF642C4E70F71272
:1008C0000E4F8F087F0AFE120D977BFF7A0C79E599
:1008D000120E257A0C79E8120E257A0C79F2120E96
:1008E00000AF08120E2F120E28120E4FEF640A4EA0
:1008F00070F7120E4FEF640A4E70F7120E4FEF644E
:100900000A4E70F7F509C3E5099408748094805085
:100910000E120E4F740E2509F8A607050980E77F11
:10092000C0120DECE4F509C3E509940874809480C5
:100930005007120D4D050980EEE4F509C3E5099451
:100940000874809480504674162509F8E6FF740EEA
:100950002509F8E6FEB50702050A741E2509F8E622
:10096000B50602050B74262509F8E6FF740E250965
:10097000F8E6B50702050C742E2509F8E6FF740E9B
:100980002509F8E6B50702050D050980AFE50A64FB
:1009900008700375A00AE50B6408700375A005E5EF
:1009A0000C6408700375A002E50D6408600302087A
:0709B0006D75A00802086D3F
:03000000020E43AA
:0C0E4300787FE4F6D8FD758159020800A4
:1009B700E709F608DFFA8046E709F208DFFA803E22
:1009C70088828C83E709F0A3DFFA8032E309F6080F
:1009D700DFFA8078E309F208DFFA807088828C8377
:1009E700E309F0A3DFFA806489828A83E0A3F6082B
:1009F700DFFA805889828A83E0A3F208DFFA804C05
:100A070080D280FA80C680D4806980F280338010DB
:100A170080A680EA809A80A880DA80E280CA803344
:100A270089828A83ECFAE493A3C8C582C8CCC583BC
:100A3700CCF0A3C8C582C8CCC583CCDFE9DEE7808C
:100A47000D89828A83E493A3F608DFF9ECFAA9F00B
:100A5700EDFB2289828A83ECFAE0A3C8C582C8CC61
:100A6700C583CCF0A3C8C582C8CCC583CCDFEADE7A
:100A7700E880DB89828A83E493A3F208DFF980CCDC
:100A870088F0EF60010E4E60C388F0ED2402B404D5
:100A97000050B9F582EB2402B4040050AF2323457C
:060AA7008223900A077390
:100AAD00BB010689828A83E0225002E722BBFE0247
:090ABD00E32289828A83E493227A
:100AC600C2D5EC30E709B2D5E4C39DFDE49CFCEE4B
:100AD60030E715B2D5E4C39FFFE49EFE120AFCC3BD
:100AE600E49DFDE49CFC8003120AFC30D507C3E4B8
:060AF6009FFFE49EFE22BA
:100AFC00BC000BBE0029EF8DF084FFADF022E4CCDE
:100B0C00F875F008EF2FFFEE33FEEC33FCEE9DECA6
:100B1C00984005FCEE9DFE0FD5F0E9E4CEFD22EDEC
:100B2C00F8F5F0EE8420D21CFEADF075F008EF2F36
:100B3C00FFED33FD4007985006D5F0F222C398FD27
:050B4C000FD5F0EA22C4
:00000001FF
