:100AC6002020434F554E54455220202020202020E0
:100AD60000434F554E542020202020202020202047
:020AE6002000EE
:100B09007F38120B40120B587F06120B40120B58FC
:0D0B19007F0C120B40120B587F01020B40A5
:100B40008F80D2A5C2A6C2A77F7D7E00120B5CC299
:080B5000A57F7D7E00020B5C15
:030AE8002430FDBA
:100AEB008D14120B40851480D2A7D2A5C2A67F7D90
:0E0AFB007E00120B5CC2A57F7D7E00020B5CAC
:0E0A4B007A0A79D77BFF7511007512107F8033
:080A59008F0D8B0E8A0F89102E
:100A6100E4F513C3E5139512E49511501CE50D252A
:100A710013FFAB0EAA0FA91085138275830012090B
:090A810076FD120AEB051380DA80
:010A8A002249
:020A8B008F1CBE
:100A8D00ED75F06484ABF07A007C007D0AAF037ED7
:100A9D00001209A38F827E00AF037C007D0A12092C
:100AAD00A38C1D8D1EAF82EFAF1C120AE8E51C044E
:090ABD00FFE51E2430FD020AEBE6
:0209F8008F0D61
:1009FA00ED75F06484750E00F50FED75F06484AB47
:100A0A00F07A007C007D0AAF037E001209A38E10E3
:100A1A008F117E00AF037C007D0A1209A38C128D10
:100A2A0013E50FAF0D120AE8E50D04FFE5112430B6
:100A3A00FD120AEBE50D2402FFE5132430FD020A3C
:010A4A00EBC0
:0608D8008F15AB05AA0418
:1008DE007C277D10AF03AE021209A3AA04AB057CE0
:1008EE00037DE8AF03AE021209A38F82AE02AF03FF
:1008FE007C037DE81209A3AB05AA047C007D64AFDE
:10090E0003AE021209A38E168F17AE02AF037C0040
:10091E007D641209A3AB05AA047C007D0AAF03AE69
:10092E00021209A38E188F19AE02AF037C007D0A46
:10093E001209A38C1A8D1BAF82EF2430FDAF151256
:10094E000AEBE51504FFE5172430FD120AEBE51559
:10095E002402FFE5192430FD120AEBE5152403FFEE
:08096E00E51B2430FD020AEB39
:040B58007F0A7E0092
:0B0B5C00EF1FAC0670011E4C70F6226B
:100B2600AB07AA06AE02AF03EF1F8E8370011E4508
:090B36008370F5AC051DEC70EBB9
:010B3F002293
:10080000758960E4F58B758906758AFFD28CD28E66
:10081000120B097A0A79C6120A4F7FE87EFD120B85
:100820005C7FE87EFD120B5C7F01120B4030B44F01
:10083000858A08E50875F00A84F509E50875F00A67
:100840008485F00A120A4BAD097FCD1209F8E4F550
:100850000BF50C050CE50C7002050BB4F4F5E50B7B
:10086000B401F0AD0A7FC91209F8E4F50BF50C05E7
:100870000CE50C7002050BB4F4F5E50BB401F03097
:10088000B5AB858B08E50875F00AA4F509E5087590
:10089000F00A84F50A120A4BAD0A7FCD1209F875E9
:1008A0000B01750CF4E50C150C7002150BE50C45ED
:1008B0000B70F2AD097FC91209F8750B01750CF4C4
:1008C000D3E50C9400E50B9400500302082DE50CD1
:0808D000150C70EC150B80E81B
:03000000020B6789
:0C0B6700787FE4F6D8FD75811E020800BE
:10097600BB010CE58229F582E5833AF583E0225036
:1009860006E92582F8E622BBFE06E92582F8E22280
:0D099600E58229F582E5833AF583E493229A
:1009A300BC000BBE0029EF8DF084FFADF022E4CC38
:1009B300F875F008EF2FFFEE33FEEC33FCEE9DEC01
:1009C300984005FCEE9DFE0FD5F0E9E4CEFD22ED47
:1009D300F8F5F0EE8420D21CFEADF075F008EF2F91
:1009E300FFED33FD4007985006D5F0F222C398FD82
:0509F3000FD5F0EA221F
:00000001FF
