:03000000020B29C7
:0C0B2900787FE4F6D8FD75812002098673
:10092000204761732073656E736F72202020202032
:10093000002020202073797374656D2020202020F2
:10094000200020206761732073656E736F72202012
:100950002020002020646574656374696E67202020
:1009600020202000202020204E4F2067617320206F
:100970002020202000202020646574656374696E47
:060980006720202020008A
:100ACB007F38120B02120B1A7F06120B02120B1A33
:0D0ADB007F0C120B02120B1A7F01020B029E
:100B02008F80D2A5C2A6C2A77F7D7E00120B1EC215
:080B1200A57F7D7E00020B1E91
:030AAA002430FDF8
:100AAD008D0F120B02850F80D2A7D2A5C2A67F7D16
:0E0ABD007E00120B1EC2A57F7D7E00020B1E66
:0A0A33007BFF750C00750D107F802D
:080A3D008F088B098A0A890B5E
:100A4500E4F50EC3E50E950DE4950C501CE508255F
:100A55000EFFAB09AA0AA90B850E82758300120841
:090A65009EFD120AAD050E80DAB7
:010A6E002265
:020A6F008F1ED8
:100A7100ED75F06484ABF07A007C007D0AAF037EF3
:100A8100001208CB8F827E00AF037C007D0A120822
:100A9100CB8C1F8D20AF82EFAF1E120AAAE51E0478
:090AA100FFE5202430FD020AAD3E
:0209E0008F1076
:1009E200ED75F06484751100F512ED75F06484AB59
:1009F200F07A007C007D0AAF037E001208CB8E13D2
:100A02008F147E00AF037C007D0A1208CB8C158DFB
:100A120016E512AF10120AAAE51004FFE5142430FD
:100A2200FD120AADE5102402FFE5162430FD020A8C
:010A3200AD16
:060800008F17AB05AA04EE
:100806007C277D10AF03AE021208CBAA04AB057C91
:10081600037DE8AF03AE021208CB8F82AE02AF03B0
:100826007C037DE81208CBAB05AA047C007D64AF8F
:1008360003AE021208CB8E188F19AE02AF037C00EE
:100846007D641208CBAB05AA047C007D0AAF03AE1B
:10085600021208CB8E1A8F1BAE02AF037C007D0AF4
:100866001208CB8C1C8D1DAF82EF2430FDAF171202
:100876000AADE51704FFE5192430FD120AADE517A8
:100886002402FFE51B2430FD120AADE5172403FF01
:08089600E51D2430FD020AAD4E
:040B1A007F0A7E00D0
:0B0B1E00EF1FAC0670011E4C70F622A9
:100AE800AB07AA06AE02AF03EF1F8E8370011E4547
:090AF8008370F5AC051DEC70EBF8
:010B010022D1
:10098600C292C291C290120ACB7A097920120A3316
:100996007BFF7A097931750C00750D107FC0120A3C
:1009A6003D7FE87EFD120B1E80133090197A09797F
:1009B60042120A337BFF7A097953120A357FE87EA1
:1009C600FD120B1E80E47BFF7A097964120A357BDF
:0A09D600FF7A097975120A3580D006
:10089E00BB010CE58229F582E5833AF583E022500F
:1008AE0006E92582F8E622BBFE06E92582F8E22259
:0D08BE00E58229F582E5833AF583E4932273
:1008CB00BC000BBE0029EF8DF084FFADF022E4CC11
:1008DB00F875F008EF2FFFEE33FEEC33FCEE9DECDA
:1008EB00984005FCEE9DFE0FD5F0E9E4CEFD22ED20
:1008FB00F8F5F0EE8420D21CFEADF075F008EF2F6A
:10090B00FFED33FD4007985006D5F0F222C398FD5A
:05091B000FD5F0EA22F7
:00000001FF
