:03000B00020800E8
:10080000C0E0C0F0C083C082C0D075D000C000C0BE
:1008100001C002C003C004C005C006C00730B21347
:10082000C2A3C2A2C2A1C2A0D2937F887E13120823
:10083000988002C293D007D006D005D004D003D050
:1008400002D001D000D0D0D082D083D0F0D0E0321E
:10085000C2A3C2A2C2A1C2A0C290C2B2C293D2AF6E
:10086000D2A8309026D2A3D2A112089412088CD21A
:10087000A2D2A012089412088CD2A01208941208D6
:0C0880008CD2A312089412088C80D7229E
:0C088C00C2A3C2A2C2A1C2A07F647E0071
:10089800E4FDFCC3ED9FEC9E5015E4FBFA0BBB0096
:0F08A800010ABA01F8BB90F50DBD00010C80E408
:0108B700221E
:030000000208B83B
:0C08B800787FE4F6D8FD75810B02085033
:00000001FF
