:0C097000D2B5D2B4D294D295D296D297D0
:10097C00750E00750FFA750C00750D73E50D150DE0
:10098C007002150CE50D450C70F2E50F150F700299
:08099C00150EE50F450E70DE9B
:0509A4007F031210B0FA
:1009A900750E00750F05750C00750D73E50D150DA8
:1009B9007002150CE50D450C70F2E50F150F70026C
:0809C900150EE50F450E70DE6E
:0509D1007F031210B0CD
:1009D600750E00750F05750C00750D73E50D150D7B
:1009E6007002150CE50D450C70F2E50F150F70023F
:0809F600150EE50F450E70DE41
:0509FE007F031210B0A0
:100A0300750C24150CD3E50C94007480948050F37A
:050A13007F021210B08B
:100A1800750C24150CD3E50C94007480948050F365
:050A28007F2C1210B04C
:100A2D00750C24150CD3E50C94007480948050F350
:050A3D007F0C1210B057
:100A4200750C24150CD3E50C94007480948050F33B
:050A52007F061210B048
:100A5700750C24150CD3E50C94007480948050F326
:050A67007F01020FD326
:1010B0008F14C2B5E51454F0FF12100312107BE533
:0710C00014120FFF02107B68
:030FD3001210B049
:100FD600751200751332751000751173E511151130
:100FE60070021510E511451070F2E5131513700225
:080FF6001512E513451270DE2F
:010FFE0022D0
:101096008D111210B0D2B5E51154F0FF12100312E3
:0A10A600107BE511120FFF02107B12
:100F22008F0C8B0D8A0E890FAF101510D3EF940022
:100F3200748094804027AF0C050CAB0DAA0EA90F4C
:100F42001208006011050FE50F7002050E14F91268
:0E0F52000800FEFD80027D2012109680CB224A
:10102B008F0C8B0D8A0E890FAB0DAA0EA90F120810
:10103B00006017AF0C050C050FE50F7002050E14C1
:0B104B00F9120800FD12109680DE2252
:040FFF00C454F0FFE7
:10100300EF30E404D2948002C294EF30E504D29529
:101013008002C295EF30E604D2968002C296EF308A
:08102300E703D29722C29722D5
:0A107B00C2B40000D2B40000C2B4F9
:101085007515171515D3E51594007480948050F3E4
:011095002238
:0910E7000D0A004552524F52005F
:03002300020F9D2C
:100F9D00C0E0C0D075D000C000C0077892E6FF2435
:100FAD002EF8A699C3EF94647480948050077892BC
:100FBD00E604FF80027F007892A607C298D007D082
:060FCD0000D0D0D0E0329C
:100F60008F0F8E0E8D0D8C0CD2AF7598504389204B
:100F7000E47F807E01FDFCAB0FAA0EA90DA80C1228
:100F80000819A804A905AA06AB077F007EC07DA8A2
:0D0F90007C001208A41209368F8DD28E222B
:0810F0008F993099FDC299228D
:101056008B0C8A0D890EAB0CAA0DA90E1208006026
:1010660013050EE50E7002050D14F9120800FF12A5
:0510760010F080E222F1
:0710F800EE4F24FF92AC2231
:0610FF003098FDAF9922BC
:1010C7007E007F647D007B007A00792E120944E45C
:0410D7007892F622F3
:100BAA008B188A19891A051BEF4E60097BFF7A1088
:100BBA0079E7121056851825851926851A277B008C
:100BCA007A00792E120C2EE94A60037F01227525DC
:100BDA00FF7526107527EA7B007A00792E120C2EF3
:070BEA00E94A60037F0022CD
:100BF100752000752101751E00751F73E51F151FF6
:100C01007002151EE51F451E70F2E52115217002C7
:080C11001520E521452070DEED
:100C1900E51D151DAE1C7002151CD39400EE940041
:050C290050947F002241
:100B25002041544D454C2055415254204C434420BE
:100B3500002020494E544552464143494E47202006
:100B4500200054727920746F2073656E6420636889
:100B550061726163746F722069276C6C2073686FB2
:100B650077206974206F6E206C63640D0A0D0A008E
:100B7500492776652066696C6C65642062756666D2
:100B850065722E2E2E0D0A004920616D2072657347
:100B9500657474696E67206D7973656C662E2E2E8B
:050BA5000D0A0D0A001D
:100D1000EF131313541F14601C14602B14603A2437
:100D2000037047EF5407FFF87401088002C333D8FB
:100D3000FCF4528022EF5407FFF87401088002C3CC
:100D400033D8FCF4529022EF5407FFF87401088066
:100D500002C333D8FCF452A022EF5407FFF8740109
:0B0D6000088002C333D8FCF452B0221C
:100DC600EF131313541F14601B1460291460372487
:100DD600037043EF5407FFF87401088002C333D849
:100DE600FC428022EF5407FFF87401088002C333E7
:100DF600D8FC429022EF5407FFF87401088002C322
:100E060033D8FC42A022EF5407FFF8740108800291
:070E1600C333D8FC42B022F7
:100E1D00EF131313541F14601B146029146037242F
:100E2D00037043EF5407FFF87401088002C333D8F1
:100E3D00FC628022EF5407FFF87401088002C3336F
:100E4D00D8FC629022EF5407FFF87401088002C3AA
:100E5D0033D8FC62A022EF5407FFF874010880021A
:070E6D00C333D8FC62B02280
:100E7400EF131313541F14601B14602914603724D8
:100E8400037043EF5407FFF87401088002C333D89A
:100E9400FC428022EF5407FFF87401088002C33338
:100EA400D8FC429022EF5407FFF87401088002C373
:100EB40033D8FC42A022EF5407FFF87401088002E3
:070EC400C333D8FC42B02249
:100D6B00EF131313541F14601C14602B14603A24DC
:100D7B00037047EF5407FFF87401088002C333D8A0
:100D8B00FCF4528022EF5407FFF87401088002C371
:100D9B0033D8FCF4529022EF5407FFF8740108800B
:100DAB0002C333D8FCF452A022EF5407FFF87401AE
:0B0DBB00088002C333D8FCF452B022C1
:100ECB00EF131313541F14601B1460291460372481
:100EDB00037043EF5407FFF87401088002C333D843
:100EEB00FC628022EF5407FFF87401088002C333C1
:100EFB00D8FC629022EF5407FFF87401088002C3FC
:100F0B0033D8FC62A022EF5407FFF874010880026B
:070F1B00C333D8FC62B022D1
:100CB000EF131313541F14601D14602D14603D2492
:100CC00003704AEF5407FFF87401088002C333D859
:100CD000FC5580FE8037EF5407FFF874010880024E
:100CE000C333D8FC5590FE8024EF5407FFF87401FD
:100CF000088002C333D8FC55A0FE8011EF5407FFD3
:0F0D0000F87401088002C333D8FC55B0FEAF066B
:010D0F0022C1
:100A6C001209707BFF7A0B79257F8012102B7BFF8C
:090A7C007A0B79367FC012102BB1
:100A8500750A09750BC4750800750973E50915091B
:100A950070021508E509450870F2E50B150B7002A3
:080AA500150AE50B450A70DE9D
:100AAD007F01120FD37F807E257D007C00120F60A9
:100ABD007F017E001210F81210C77BFF7A0B794769
:100ACD00121056E47892F67892E6FFD39410748063
:100ADD0094807B00500A7A00792E8F107F80800DD4
:100AED007A00793E7892E624F0F5107FC0120F223D
:100AFD007892E6D394207480948040CB7BFF7A0B60
:100B0D0079751210567BFF7A0B798D1210561210D3
:080B1D00C77F01120FD380AF66
:030000000210DB10
:0C10DB00787FE4F6D8FD758192020A6C63
:10080000BB010689828A83E0225002E722BBFE02F6
:09081000E32289828A83E4932229
:10081900E88FF0A4CC8BF0A42CFCE98EF0A42CFC7E
:100829008AF0EDA42CFCEA8EF0A4CDA8F08BF0A4FC
:100839002DCC3825F0FDE98FF0A42CCD35F0FCEB5B
:100849008EF0A4FEA9F0EB8FF0A4CFC5F02ECD3920
:0F085900FEE43CFCEAA42DCE35F0FDE43CFC228D
:1008680075F008758200EF2FFFEE33FECD33CDCC47
:1008780033CCC58233C5829BED9AEC99E5829840CA
:100888000CF582EE9BFEED9AFDEC99FC0FD5F0D6A7
:10089800E4CEFBE4CDFAE4CCF9A88222B800C1B9D1
:1008A8000059BA002DEC8BF084CFCECDFCE5F0CB0F
:1008B800F97818EF2FFFEE33FEED33FDEC33FCEB48
:1008C80033FB10D703994004EB99FB0FD8E5E4F903
:1008D800FA227818EF2FFFEE33FEED33FDEC33FCF0
:1008E800C933C910D7059BE99A4007EC9BFCE99AE4
:1008F800F90FD8E0E4C9FAE4CCFB2275F010EF2F29
:10090800FFEE33FEED33FDCC33CCC833C810D70728
:100918009BEC9AE899400AED9BFDEC9AFCE899F863
:0E0928000FD5F0DAE4CDFBE4CCFAE4C8F922F6
:0E093600C3E49FFFE49EFEE49DFDE49CFC22D2
:100C2E008B228A238924AB25AA26A92712080060C5
:100C3E0063AB22AA23A924120800605F85252885AC
:100C4E00262985272A8B2B8A2C892DAB28AA29A900
:100C5E002A120800FF6023AB2BAA2CA92D12080024
:100C6E006F701704252AF52AE43529F52974012514
:100C7E002DF52DE4352CF52C80D1AB28AA29A92AE7
:100C8E001208007002800D74012524F524E435232A
:100C9E00F523809DAB22AA23A924227B007A00791A
:020CAE00002222
:10094400EF4E6012EF60010EEDBB010B89828A83CA
:10095400F0A3DFFCDEFA2289F05007F709DFFCA9D7
:0C096400F022BBFEFCF309DFFCA9F0222E
:00000001FF
